{
  "transactions": [
    {
      "hash": "0x0c1e06f00bfa68be632d6f516db3994a21acddc72f804ac0c8b27f5afbb22c29",
      "transactionType": "CALL",
      "contractName": null,
      "contractAddress": "0x10f5d4a10928386e244dd1462529700df79ee977",
      "function": "mintNft(string)",
      "arguments": [
        "\"ipfs://bafybeig37ioir76s7mg5oobetncojcm3c3hxasyd4rvid4jqhy4gkaheg4/?filename=0-PUG.json\""
      ],
      "transaction": {
        "from": "0x6f0169e31dd1cd8df9f8b800ffdbf40cdfd889a3",
        "to": "0x10f5d4a10928386e244dd1462529700df79ee977",
        "gas": "0x3d623",
        "value": "0x0",
        "input": "0xda86f4a900000000000000000000000000000000000000000000000000000000000000200000000000000000000000000000000000000000000000000000000000000057697066733a2f2f62616679626569673337696f6972373673376d67356f6f6265746e636f6a636d3363336878617379643472766964346a71687934676b61686567342f3f66696c656e616d653d302d5055472e6a736f6e000000000000000000",
        "nonce": "0xf",
        "chainId": "0xaa36a7",
        "accessList": null,
        "type": null
      },
      "additionalContracts": [],
      "isFixedGasLimit": false
    }
  ],
  "receipts": [
    {
      "status": "0x1",
      "cumulativeGasUsed": "0xcaadbe",
      "logs": [
        {
          "address": "0x10f5d4a10928386e244dd1462529700df79ee977",
          "topics": [
            "0xddf252ad1be2c89b69c2b068fc378daa952ba7f163c4a11628f55a4df523b3ef",
            "0x0000000000000000000000000000000000000000000000000000000000000000",
            "0x0000000000000000000000006f0169e31dd1cd8df9f8b800ffdbf40cdfd889a3",
            "0x0000000000000000000000000000000000000000000000000000000000000000"
          ],
          "data": "0x",
          "blockHash": "0x4c92ab53533c8be03ee55363da524110664bacce6547b5e0a9c401cf19b7a26a",
          "blockNumber": "0x5f2e6a",
          "transactionHash": "0x0c1e06f00bfa68be632d6f516db3994a21acddc72f804ac0c8b27f5afbb22c29",
          "transactionIndex": "0x76",
          "logIndex": "0x92",
          "removed": false
        }
      ],
      "logsBloom": "0x00000000000000000000000000000000000000000000000000000000000000000000000000000000000000000000000000000000000004000000000000000000000000000000000000000008000000000000000000000000000000000000000000000000020000000000000000000800000000000000000000000410000000000000000000000000000000000000000000000000000000000000000000000000000000000000000000000000010000000000000000000000000000000000000000000002000000010000000000000002000000000000000000000000000020000000000000000000000000000000000000000000400000000000000000000000",
      "type": "0x0",
      "transactionHash": "0x0c1e06f00bfa68be632d6f516db3994a21acddc72f804ac0c8b27f5afbb22c29",
      "transactionIndex": "0x76",
      "blockHash": "0x4c92ab53533c8be03ee55363da524110664bacce6547b5e0a9c401cf19b7a26a",
      "blockNumber": "0x5f2e6a",
      "gasUsed": "0x2c70e",
      "effectiveGasPrice": "0x52c125c90",
      "from": "0x6f0169e31dd1cd8df9f8b800ffdbf40cdfd889a3",
      "to": "0x10f5d4a10928386e244dd1462529700df79ee977",
      "contractAddress": null
    }
  ],
  "libraries": [],
  "pending": [],
  "returns": {},
  "timestamp": 1720007538,
  "chain": 11155111,
  "commit": "e79f8ff"
}