{
  "transactions": [
    {
      "hash": "0x9498083933edd6facd1ef690df3e719ee746d819157490c8144b03b375172b2e",
      "transactionType": "CALL",
      "contractName": null,
      "contractAddress": "0x701fb2fc41969337c652e4c818c06db7032ba4d2",
      "function": "mintNft(string)",
      "arguments": [
        "\"ipfs://bafybeig37ioir76s7mg5oobetncojcm3c3hxasyd4rvid4jqhy4gkaheg4/?filename=0-PUG.json\""
      ],
      "transaction": {
        "from": "0x6f0169e31dd1cd8df9f8b800ffdbf40cdfd889a3",
        "to": "0x701fb2fc41969337c652e4c818c06db7032ba4d2",
        "gas": "0x170e4860",
        "value": "0x0",
        "input": "0xda86f4a900000000000000000000000000000000000000000000000000000000000000200000000000000000000000000000000000000000000000000000000000000057697066733a2f2f62616679626569673337696f6972373673376d67356f6f6265746e636f6a636d3363336878617379643472766964346a71687934676b61686567342f3f66696c656e616d653d302d5055472e6a736f6e000000000000000000",
        "nonce": "0x7f",
        "chainId": "0x2537",
        "accessList": null,
        "type": null
      },
      "additionalContracts": [],
      "isFixedGasLimit": false
    }
  ],
  "receipts": [],
  "libraries": [],
  "pending": [],
  "returns": {},
  "timestamp": 1720071217,
  "chain": 9527,
  "commit": "e79f8ff"
}